:020000040800F2
:10000000F0040020050100089F230008711D00086E
:100010009D230008130B0008B12800080000000011
:10002000000000000000000000000000A323000802
:10003000150B000800000000A1230008A5230008FC
:100040001F0100081F0100081F0100081F01000810
:100050001F0100081F0100081F0100081F01000800
:100060001F0100081F0100081F0100081F010008F0
:100070001F0100081F0100081F0100081F010008E0
:100080001F0100081F0100081F0100081F010008D0
:100090001F0100081F0100081F0100081F010008C0
:1000A0001F0100081F0100081F0100081F010008B0
:1000B0001F010008092400081F0100081F01000893
:1000C0001F0100081F0100081F0100081F01000890
:1000D0001F0100081F010008A52800081F010008D3
:1000E0001F0100081F0100081F010008DFF810D0E1
:1000F00000F0ACFC00480047BD470008AFF30080AB
:10010000F00400200648804706480047FEE7FEE767
:10011000FEE7FEE7FEE7FEE7FEE7FEE7FEE7FEE7B7
:1001200007240008ED0000082DE9F0410024061B1B
:10013000254671F1000605DA01240027D0EB0700FF
:1001400067EB0101161E73F1000605DA0027D2EBFA
:100150000702012567EB030300F033FB86460E46DA
:1001600017469C46AC4204D00025D0EB050E65EB4B
:10017000010624B10020D2EB000760EB030C7046AF
:1001800031463A466346BDE8F081202A04DB203A36
:1001900021FA02F00021704721FA02F3D040C2F1A7
:1001A00020029140084319467047D2B201E000F89E
:1001B000012B491EFBD270470022F6E710B513460B
:1001C0000A4604461946FFF7F0FF204610BD30B539
:1001D00004460020034600E05B1C934203D2E05C2F
:1001E000CD5C401BF8D030BDF0B480EA0102D40FE2
:1001F0004200B2EB410F02D20246084611464A00C5
:1002000042D0C30DDDB2C1F3C752AD1A202D35DA8D
:10021000C1F3160141F4000204B15242C5F12006B7
:1002200002FA06F12A411044B3EBD05F23D0C4B1E7
:10023000012DA0EBC35009DCF0BC4FF0004202EAF4
:10024000C352DBB200F5000000F016BB400000F125
:10025000807000EBC350A0F1807040EAD17049007B
:1002600009E0490841EAC071A0EBC35000F5000065
:10027000400800EBC350F0BC00F0F5BA6142012227
:1002800002EB4101001BF6E7F0BC704781F0004132
:10029000AAE780F00040A7E780EA010210B502F06B
:1002A0000043400022D04A001FD0010E01EB126132
:1002B000C0F35600C2F3560240F4000042F40002BC
:1002C000A0FB022000047F39140400D0401C50EA37
:1002D000124001D44000491EC2B20C0604EBD010FB
:1002E000401C4008802A02D003E0002010BD20F00E
:1002F0000100002900DA0020184310BD30B480EA64
:10030000010202F0004530F0004221F0004013D01D
:1003100090B1C30DD40DC2F31601C0F31600E41A58
:1003200041F4000140F400027D34914201D3641C89
:1003300000E04900002C02DA30BC002070474FF486
:1003400000000023914201D3891A034340084FEA79
:100350004101F7D151B1914202D14FF0004105E086
:1003600002D24FF0010101E06FF0010103EBC45034
:10037000284430BC00F077BA420005D0C0F3C75221
:100380005242914201DC0020704700EBC15070479F
:100390002DE9FE4F804681EA0300C00F0C46009015
:1003A00021F0004123F00045B8EB0200A94105D23D
:1003B0004046214690461C460B46024623F000402C
:1003C000104347D0270DC7F30A00C3F30A51029028
:1003D000401A019040286BDAC3F3130040F4801BED
:1003E0000098924620B10023D2EB030A63EB0B0B7B
:1003F00001985946C0F14002504600F013FA0646F3
:100400000D4650465946019A00F01BFA10EB0800C1
:100410006141002487EA115284EAE7731A4340D00D
:10042000009A62B3019A012A4FEA075215DC001BB9
:1004300061EB02014FF0004202EA0752CDE90042AF
:10044000001C41F5801132462B4600F052FA03B0F1
:10045000BDE8F08F40462146F9E7001B61EB020141
:10046000001C41F5801300185B412018A2F500170D
:1004700047EB030140EAD570B6196D4111E06D08F4
:100480004FEA360645EAC0754FEA0752001B61EB9A
:100490000201001C41F5801149084FEA30000019A3
:1004A000514132462B4603B0BDE8F04F00F012BA7E
:1004B0000098012240000023D0EB020263EBE073BE
:1004C000009821464FEAE074B8EB000061EB0401AC
:1004D000E9E783F000435BE781F0004158E72DE94D
:1004E000FE4F81EA030404F0004421F0004100942F
:1004F0004FF0000B23F0004350EA01045ED052EAB3
:1005000003045BD0C3F30A54C1F30A552C44A4F28C
:10051000F3340194A0FB0254C1F3130141F48011A0
:10052000C3F3130343F4801301FB024400FB034EA7
:10053000840A970A44EA815447EA8357A4FB076870
:1005400002958D0A05FB07854FEA932C04FB0C549A
:100550002705029D4FEA065847EA1637B5EB08050E
:100560006EEB070C870E920E47EA811742EA831260
:10057000A7FB0201B6EB0B0164EB00042B0D43EA71
:100580000C335E1844EB1C50DA465146E7FB02017F
:10059000C5F313044FEA0B3343EA14534FEA043212
:1005A000019C43EA0603A4F10C040294009CCDE9EB
:1005B00000B400F09EF903B0BDE8F08F00200146C2
:1005C000F9E72DE9F04D81EA030404F0004B21F036
:1005D000004514464FF0000A23F0004150EA05029E
:1005E00020D054EA01021DD0C5F30A570246C5F3D4
:1005F0001303C1F31300C1F30A5640F4801543F40A
:100600008013A7EB0608101BD64608F2FD3873EBE3
:10061000050002D308F1010801E092185B41B8F12E
:10062000000F03DA00200146BDE8F08D00204FF4F2
:100630008011064684460EE0171B73EB050705D3B1
:10064000121B63EB050306434CEA010C49084FEA11
:10065000300092185B4150EA0107EDD152EA0300E5
:1006600012D082EA040083EA0501084305D0101B7A
:10067000AB4106D20122002306E000224FF00043E6
:1006800002E06FF0010253101AEB06004CEB085128
:1006900010EB0A0041EB0B01BDE8F04D00F01AB978
:1006A000C10F80EAE0700844CA079623002100F0D9
:1006B000E3B896230022114600F0DEB80EB5C10F54
:1006C00080EAE0700844CA07002140F233438DE815
:1006D0000E000A460B4600F00CF903B000BD00F016
:1006E000004220F00040C10DC0F3160040F40000AD
:1006F0007F2901DA00207047962903DCC1F19601B9
:10070000C84001E096398840002AF4D04042704742
:1007100020F00040C10DC0F3160040F400007F2916
:1007200001DA00207047962903DCC1F19601C84028
:10073000704796398840704700F0004230F0004022
:100740000AD0C10D01F56071C0F3160042EA0151F3
:10075000C20840071143704700200146704701F06E
:10076000004330B421F0004150EA010206D00A0DE6
:10077000A2F56072C1F31301002A02DC30BC002034
:100780007047440F44EAC104C100E01830BC00EBDC
:10079000C25000F068B830B50B4601460020202258
:1007A000012409E021FA02F59D4205D303FA02F57E
:1007B000491B04FA02F52844151EA2F10102F1DCDE
:1007C00030BD2DE9F05F0546002092469B468846E5
:1007D0000646814640241BE02846414647462246BD
:1007E000FFF7D3FC53465A46C01A914110D3114625
:1007F0001846224600F016F82D1A67EB01084F46FE
:1008000022460120002100F00DF817EB00094E41AF
:10081000201EA4F10104DFDC484631462A46434647
:10082000BDE8F09F202A04DB203A00FA02F1002004
:1008300070479140C2F1200320FA03F3194390401E
:100840007047202A06DBCB17203A41FA02F043EA30
:10085000E07306E041FA02F3D040C2F12002914079
:100860000843194670470029A8BF7047401C49003B
:1008700008BF20F00100704710B4B0FA80FC00FA05
:100880000CF050EA010404BF10BC704749B1CCF130
:10089000200421FA04F411FA0CF118BF01212143BC
:1008A0000843A3EB0C01CB1D4FEA00614FEA102077
:1008B00042BF002010BC704700EBC3501044002919
:1008C000A4BF10BC7047401C490008BF20F00100C5
:1008D00010BC704710B5141E73F1000408DA401CF8
:1008E00041F1000192185B411A4301D120F001004F
:1008F00010BD2DE9F04D92469B4611B1B1FA81F23F
:1009000002E0B0FA80F220329046FFF78BFF0446F7
:100910000F4640EA0A0041EA0B0153465A46084393
:1009200013D0114653EA010019D0C8F140025046D5
:10093000FFF72BFC05460E46504659464246FFF748
:1009400071FF084305D0012004E020463946BDE888
:10095000F08D0020054346EAE0762C4337430A98A1
:100960006305E40AA0EB08000022FD0A44EA4754AC
:100970000A3002D500200146E9E701051019694156
:10098000DDE9084500196941BDE8F04DA2E770B501
:1009900021F0004303430CD0C1F30A550024D5EBEA
:1009A000040564EB0403D617AD1AB34102DB002043
:1009B000014670BD201841EB025170BDC1F30A52CF
:1009C000C1F3130140F2FF3341F480119A4202DA7D
:1009D00000200146704740F233439A42A2F233426C
:1009E00002DC5242FFF7D1BBFFF71CBF30B5041E3B
:1009F00071F1000404DB4FF00044404264EB01015C
:100A0000141E73F1000405DB1C464FF000435242F4
:100A100063EB04038B4208BF824230BD30B5041E35
:100A200071F1000404DB4FF00044404264EB01012B
:100A3000141E73F1000405DB1C464FF000435242C4
:100A400063EB0403994208BF904230BD064C074D4A
:100A500006E0E06840F0010394E80700984710348E
:100A6000AC42F6D3FFF746FB30660008506600083C
:100A70002DE9F04D00231A461B1A8A4103DB0020A2
:100A80000146BDE8F08DC1F30A52C1F3130141F4F0
:100A900080154FF0000BD10702D100186D41521E96
:100AA0000027044640F2FF11384601EB620A3E4639
:100AB0008046024600204FF48011FFF766FBC21902
:100AC0007141BB1846EB0100B4EB030C75EB000C55
:100AD00004D3E41A65EB000517460E46241908F105
:100AE00001006D4180463428E3DDF91946EB06002C
:100AF000091BA84103D24FF0FF32134601E0002248
:100B000013461BEB070046EB0A51BDE8F04DFFF71B
:100B1000E1BEFEE7704772B6FEE710B590F821100F
:100B20000022022905D00421816380F820200120C1
:100B300010BD01680B6823F00E030B6001680B68A1
:100B400023F001030B6090F84030C46B012101FADF
:100B500003F3636080F8211080F82020104610BD58
:100B600010B590F821100024022903D004218163DC
:100B700001243DE001680A6822F00E020A60016863
:100B80000A6822F001020A601A4A0168914201D102
:100B9000012121E0174A1432914201D110211BE0BA
:100BA000144A2832914201D1891515E0114A3C328C
:100BB000914201D189140FE00E4A5032914202D184
:100BC0004FF4803108E00B4A6432914202D14FF475
:100BD000801101E04FF08071064A083A516001210E
:100BE00080F82110002180F82010416B01B1884766
:100BF000204610BD0800024070B5044600F008F918
:100C00000546601C02D004480078044400F000F956
:100C1000401BA042FAD370BD000000202DE9F84F20
:100C2000DFF8B8910024A9F1040B23460F2709F13E
:100C3000040AABF1040EC9E00125A5402A40AA42EE
:100C40007DD1674ED1F804C0ACEB0608B44532D074
:100C500014DCBCF1030F3AD009DCBCF1000F2AD040
:100C6000BCF1010F1CD0BCF1020F31D11DE0BCF171
:100C7000110F17D0BCF1120F2AD119E0B8F5881F57
:100C800019D006DCB8F5803F15D0B8F5801F1FD10C
:100C900011E0B8F5001F0ED0B8F5041F18D10AE016
:100CA000CB6815E0CB681B1D12E0CB6808330FE062
:100CB000CB680C330CE08B682BB1012B4FF0080391
:100CC00003D0456104E0042302E0056100E0002355
:100CD000FF2A01D8064601E000F104064FEA840528
:100CE00001D9A5F12005D6F8008007FA05FC28EA0D
:100CF0000C0803FA05F548EA0508C6F800804D68B7
:100D0000ED0062D5374DAE6946F00106AE61AD69C2
:100D100024F0030605F001050095334D06EB050CA4
:100D2000DCF80850A607360F07FA06F825EA08058A
:100D3000DFF8B880404503D14FF0000817E044E0E9
:100D4000DFF8AC80404502D14FF001080FE0DFF83A
:100D5000A480404502D14FF0020808E0DFF89880F7
:100D6000404502D14FF0030801E04FF0040808FAB3
:100D700006F848EA0508CCF808804D68D9F8006004
:100D8000ED024D4601D5164300E096432E604D68B6
:100D9000DAF80060AD02554601D5164300E09643EF
:100DA0002E604D68DBF80060AD035D4601D516434B
:100DB00000E096432E604D68DEF80060ED03754656
:100DC00001D5164300E096432E60641C0D682A4648
:100DD000E5407FF431AFBDE8F88F00000804014022
:100DE0000000111000100240000001400008014006
:100DF000000C0140001001400014014080680840D0
:100E000000D0012070470AB1016170470904FBE777
:100E10000148806870470000000000200248816897
:100E2000027811448160704700000020074810B527
:100E3000016841F010010160032000F075F80F20F7
:100E400000F006F800F024F8002010BD0020024059
:100E500070B50D4D04464FF47A712878B1FBF0F06F
:100E60000A490968B1FBF0F000F0DCFA48B9102C2F
:100E700007D200222146501E00F036F800206C6098
:100E800070BD012070BD0000000000200C0000209B
:100E90000C4808B5816941F001018161816901F067
:100EA00001010091C16941F08051C161C06900F048
:100EB000805000900448416821F0E06141F00071E9
:100EC000416008BD0010024000000140002809DB1D
:100ED00000F01F02012191404009800000F1E02054
:100EE000C0F8001170470000F0B40E4B1B680C46B0
:100EF000C3F30223C3F10705042D00D90425191DEE
:100F0000072901D2002300E0DB1E012606FA05F1C5
:100F1000491E214099409E40761E16403143F0BC48
:100F200001F0ECBC0CED00E0064900F00702086897
:100F30004FF6FF03184040EA0220034A10430860BE
:100F4000704700000CED00E00000FA052DE9F047C5
:100F50000F46050061D0434E306800F00700B842EC
:100F600009D2306820F0070038433060306800F064
:100F70000700B84251D128683B4C810712D5400781
:100F800003D5606840F4E06060602878000703D50E
:100F9000606840F4605060606068A96820F0F0000C
:100FA000084360602878C00728D06868012810D0FE
:100FB0002168022810D0890700292EDA616821F003
:100FC000030101436160FFF723FF804641F2883946
:100FD0000DE021688903EFE78901EDE7FFF718FFCE
:100FE000A0EB0801494502D90320BDE8F0876068FD
:100FF000696800F00C00B0EB810FEFD1306800F0B1
:101000000700B8420BD9306820F007003843306041
:10101000306800F00700B84201D00120E5E72878E9
:10102000400705D56068E96820F4E0600843606027
:101030002878000706D56068296920F4605040EAE6
:10104000C100606000F038F86168084AC1F303111C
:10105000515CC8400649086006480068FFF7F8FE82
:101060000020C2E700200240001002408A58000819
:101070000C0000200400002004480549006849686D
:10108000044AC1F30221515CC84070470C000020A3
:10109000001002409A580008044805490068496851
:1010A000044AC1F3C221515CC84070470C000020C3
:1010B000001002409A5800080E4A51680E4801F08C
:1010C0000C03042B11D0082B0FD10C48C1F3834320
:1010D000C903C05C0AD55168084AC1F34041921E59
:1010E000515C054A5043B0FBF1F070470449484356
:1010F000704700000010024000127A007A58000881
:1011000000093D002DE9F84F040070D02078C04D53
:10111000C00749D06868C0F38100012807D068681B
:10112000C0F38100022809D16868C00306D5286889
:10113000800339D560680028E7D035E06068B0F5F5
:10114000803F0BD010B1B0F5A02F11D0286820F44B
:1011500080302860286820F4802002E0286840F46D
:1011600080302860606890B1FFF752FE06460AE0C2
:10117000286840F480202860F0E700BFFFF748FEB1
:10118000801B642873D828688003F7D50CE0FFF72C
:101190003FFE064605E000BFFFF73AFE801B6428CD
:1011A000F0D828688003F7D420789A4E80074FF053
:1011B00001094FF0000839D5686810F00C0F07D00E
:1011C0006868C0F38100022809D16868C00306D4AA
:1011D0002868800714D52069012808D110E020690B
:1011E000B0B1C6F80090FFF713FE074605E00AE12C
:1011F000FFF70EFEC01B0228C4D828688007F7D569
:101200002868616920F0F80040EAC10028600DE01C
:10121000C6F80080FFF7FCFD074604E0FFF7F8FD85
:10122000C01B022823D828688007F7D4207800073D
:101230002CD57948A169D9B1C0F80090FFF7E8FD35
:10124000074604E0FFF7E4FDC01B02280FD8686AD8
:101250008007F7D571484FF4FA510068B0FBF1F000
:10126000009000BF0098411E0091FAD20EE080E08D
:10127000C0F80080FFF7CCFD074604E0FFF7C8FD8B
:10128000C01B022875D8686A8007F7D42078400709
:1012900060D5E8690027C00008D4E86940F08050B4
:1012A000E861E869012700F0805000905C4801681F
:1012B000C90513D40168834641F480710160FFF7CA
:1012C000A7FD824606E000BFFFF7A2FDA0EB0A00E3
:1012D00064284ED8DBF80000C005F5D5E068012889
:1012E0000AD008B1052813D0286A20F0010028622E
:1012F000286A20F0040002E0286A40F00100286219
:10130000E06841F2883B98B1FFF782FD82460BE02E
:10131000286A40F004002862EEE700BFFFF778FD7E
:10132000A0EB0A0159455AD8286A8007F6D50CE087
:10133000FFF76EFD824605E0FFF76AFDA0EB0A01AC
:1013400059454CD8286A8007F6D41FB1E86920F0C7
:101350008050E861E06988B36968C1F381010229BE
:1013600044D00228C6F8608004D0FFF751FD04463F
:1013700038E034E0FFF74CFD074604E0FFF748FD96
:10138000C01B02282BD828688001F7D4206AB0F54A
:10139000803F05D16868A16820F400300843686088
:1013A000D4E908010843696821F4741108436860AE
:1013B000C6F86090FFF72CFD044606E025E000BF6C
:1013C000FFF726FD001B022809D828688001F7D501
:1013D0001BE000BFFFF71CFD001B022802D9032001
:1013E000BDE8F88F28688001F4D40EE00128F7D01A
:1013F0006868226A00F48031914204D1616A00F485
:101400007010884201D00120EAE70020E8E70000E0
:101410000010024000004242800442420C000020C2
:101420000070004010B5401EB0F1807F01D3012054
:1014300010BD4FF0E02460610F21601701F05EFAEB
:101440000020A06107202061002010BD7047704778
:1014500070B590F83C20012A26D0012480F83C4049
:10146000022280F83D2003685A689D6822F07006C9
:101470000A6832435A600D4B02689A4208D0B2F1B2
:10148000804F05D00A4B9A4202D00A4B9A4204D1AF
:10149000496825F080031943916080F83D400021A0
:1014A00080F83C10084670BD022070BD002C014041
:1014B000000400400008004010B5040003D094F878
:1014C0003D0010B107E0012010BD002084F83C0071
:1014D000204600F01FF8022084F83D00211D2068FE
:1014E00000F098FF012084F8460084F83E0084F85C
:1014F0003F0084F8400084F8410084F8420084F8FA
:10150000430084F8440084F8450084F83D0000203E
:1015100010BD000008B500680B49884212D10B4885
:10152000C16941F00201C161C069002200F00200FE
:10153000009011461D20FFF7D7FCBDE808401D2094
:10154000FFF7C4BC08BD00000004004000100240CA
:1015500070B5044690F83C000025012817D00126FC
:1015600084F83C60022084F83D002068826822F004
:10157000770222F47F4282600868502838D00DDC60
:1015800020284FD005DC90B3102811D14AE002206A
:1015900070BD302846D040280AD13BE060282FD0CB
:1015A00070280DD0B0F5805F03D0B0F5005F12D089
:1015B000012584F83D60002084F83C00284670BD79
:1015C000CB68D1E90121206800F06DFF20688168B7
:1015D00041F0770109E0CB68D1E90121206800F0F2
:1015E00062FF2068816841F480418160E1E719E091
:1015F000CA684968206801F00BF85021206806E0AD
:10160000CA684968206801F014F86021206800F079
:1016100054FFCEE7CA684968206800F0F9FF40210E
:101620002068F4E7226801461046F0E770472DE98C
:10163000F04104460068C66805694FF00007A90735
:1016400013D5B10711D5F91E01610120207720685B
:1016500080698007204602D0FFF7E8FF04E000F031
:10166000A5F8204600F037F92777680716D57007E8
:1016700014D521686FF004000861022020772068EB
:10168000806910F4407F204602D0FFF7CFFF04E0CE
:1016900000F08CF8204600F01EF92777280715D5B2
:1016A000300713D521686FF0080008610420207707
:1016B0002068C0698007204602D0FFF7B7FF04E02A
:1016C00000F074F8204600F006F92777E80616D5F2
:1016D000F00614D521686FF010000861082020770B
:1016E0002068C06910F4407F204602D0FFF79EFFBB
:1016F00004E000F05BF8204600F0EDF82777E807FB
:1017000008D0F00706D021686FF00100086120467C
:1017100000F030F9280608D5300606D521686FF0AC
:10172000800008612046FFF791FE680608D5700624
:1017300006D521686FF040000861204600F01BF9D3
:10174000A8060AD5B00608D521686FF02000086108
:101750002046BDE8F041FFF77ABEBDE8F081000009
:1017600000B585B0002100910191029103910068BC
:101770000B49884211D10B48816941F00401816114
:101780008069694600F00400049040200090022027
:10179000019003900448FFF741FA05B000BD000036
:1017A000000400400010024000080140704770B57E
:1017B000044690F83C0000260D4601280FD0012079
:1017C00084F83C006AB1042A1DD0082A2FD00C2AC4
:1017D0003FD00126002084F83C00304670BD022036
:1017E00070BD206800F072FE2068816941F0080138
:1017F00081612068816921F004018161206881692B
:101800002A69114311E0206800F088FE2068816990
:1018100041F4006181612068816921F48061816106
:10182000206881692A6941EA02218161D2E7206842
:1018300000F0A0FE2068C16941F00801C161206884
:10184000C16921F00401C1612068C1692A6911439D
:1018500011E0206800F0BAFE2068C16941F400611F
:10186000C1612068C16921F48061C1612068C169DA
:101870002A6941EA0221C161ACE710B5040003D036
:1018800094F83D0010B107E0012010BD002084F85D
:101890003C00204600F01EF8022084F83D00211D87
:1018A000206800F0B7FD012084F8460084F83E006F
:1018B00084F83F0084F8400084F8410084F8420036
:1018C00084F8430084F8440084F8450084F83D001F
:1018D000002010BD7047704710B50446022249B180
:1018E00004290ED0082913D094F84100012816D0FD
:1018F000012010BD94F83E000128F9D184F83E2063
:101900000FE094F83F000128F2D184F83F2008E06E
:1019100094F840000128EBD184F8402001E084F8DD
:1019200041200122206800F0B1FD0F492068884263
:1019300003D1426C42F4004242642068884208D0DD
:10194000B0F1804F05D00949884202D00849884249
:1019500004D1816801F00701062903D0016841F034
:1019600001010160002010BD002C01400004004076
:10197000000800407047704770477047F8B501682D
:1019800004460868CA684B6910F00F0F4FF0000555
:1019900059D003F0010602F49077374365D0C107B0
:1019A00005D0D10503D5616C41F0010161644107A7
:1019B00005D5D90703D0616C41F00201616481074C
:1019C00005D5D90703D0616C41F0040161640107BA
:1019D00007D502F02001314303D0616C41F00801CA
:1019E0006164616C00293AD0800604D5900602D566
:1019F000204600F05FFE20684069616CC0F38010F3
:101A0000090700D460B3204600F02DFE206840692D
:101A1000400621D52068143050E8001F21F0400115
:101A200040E80012002AF5D1E06BA8B16D4941638E
:101A3000E06BFFF795F8002811D0E06B416B01B027
:101A4000BDE8F040084783060FD593060DD5204624
:101A5000BDE8F84000F02EBE2046FFF78EFFF8BD2F
:101A60002046FFF78AFF6564F8BD266B2023012E10
:101A70007CD1C6067AD5D60678D508684868009025
:101A800048694FF00206400640D5E16B086840689F
:101A90000004000CE8D0A28D8242E5D9E085886977
:101AA00020282DD020680C3050E8001F21F48071D0
:101AB00040E80012002AF5D12068143050E8001FD9
:101AC00021F0010140E80012002AF5D1206814300D
:101AD00050E8001F21F0400140E80012002AF5D133
:101AE00084F84230256320680C3050E8001F21F054
:101AF000100140E80012002AF5D1E06BFFF70DF865
:101B00006663A08DE18D401A81B22AE0A08DE18D3F
:101B1000401A81B2E08D0028A6D00029A4D0226806
:101B20000C3252E8000F20F4907042E80007002FBA
:101B3000F5D12068143050E8002F22F0010240E86F
:101B40000027002FF5D184F84230256320680C303F
:101B500050E8002F22F0100240E80023002BF5D1BE
:101B600066632046FFF708FFF8BDFFE705062BD5A3
:101B7000150629D594F841002128F5D1A068B0F5C3
:101B8000805F01D12069B0B1206A411C21622168C7
:101B900000784860E08C401E0004000CE084E3D133
:101BA0002068C16821F08001C1602068C16841F0EF
:101BB0004001C160D8E7206A0088C0F3080048608F
:101BC000206A801C2062E5E74006CDD55006CBD5C3
:101BD000CA68204622F04002CA6084F8413000F012
:101BE000C6F8C1E75726000870B5040004D094F881
:101BF0004100002510B106E0012070BD84F840507E
:101C0000204600F023F8242084F841002068C168B1
:101C100021F40051C160204600F0AEFD206801694A
:101C200021F4904101612068416921F02A0141615C
:101C30002068C16841F40051C1606564202084F8C7
:101C4000410084F842006563002070BD30B585B066
:101C50000024009401940294039400681849884277
:101C60002BD11848C16941F40031C161C16901F447
:101C700000310491816941F0040181618069124D54
:101C800000F0040004900420009002200190032042
:101C9000039069462846FEF7C1FF0820CDE90004FD
:101CA000694628460294FEF7B9FF00221146262015
:101CB000FFF71AF92620FFF709F905B030BD00003B
:101CC00000440040001002400008014070472DE928
:101CD000F843044690F84100984616460D462028E1
:101CE00002D00220BDE8F88385B17EB10020606497
:101CF000212084F84100FFF78BF8A6848146E68412
:101D0000A0682027B0F5805F02D003E00120E9E75A
:101D1000206910B12E4600250EE000260CE080213F
:101D2000204600F085FDA8B9C6B116F8010B216860
:101D30004860E08C401EE084E08C4B464FF000028F
:101D4000CDF800800028EAD14FF04001204600F095
:101D50006FFD40B184F841700320C3E735F8020BF2
:101D6000C0F30800E3E784F841700020BAE7704749
:101D7000FEE7000070B5104D4FF4007400222146BC
:101D80002846FFF740F800F019F801221602314604
:101D90002846FFF738F800F011F8002231462846AF
:101DA000FFF731F800F00AF821462846BDE87040F8
:101DB0000122FFF728B80000000C01400020401C61
:101DC000C0B20A28FBD370470C4800B5816985B0C2
:101DD00041F0080181618069694600F008000490C3
:101DE0004FF44070009003200390112001900448AC
:101DF000FEF714FF00F0AAF805B000BD0010024085
:101E0000000C014070B50C4C012251022046FEF737
:101E1000FAFFFFF7D3FF0122150229462046FEF7FD
:101E2000F2FFFFF7CBFF002229462046FEF7EBFF2B
:101E3000BDE87040FFF7C2BF000C01402DE9F0473C
:101E40000024164E804625464FF400794FF48077E3
:101E50006006040E012239463046FEF7D4FFFFF734
:101E6000ADFF49463046FEF7C9FF08B1641CE4B235
:101E7000002239463046FEF7C6FFFFF79FFF6D1C74
:101E8000EDB2082DE4D3B8F1000F04D0FFF772FFD4
:101E90002046BDE8F087FFF7B5FFF9E7000C0140E9
:101EA0002DE9F041174E054600244FF480774FF49A
:101EB0000078280601D5012200E000224146304684
:101EC000FEF7A1FFFFF77AFF012239463046FEF701
:101ED0009AFFFFF773FF002239463046FEF793FF63
:101EE000072C04D1012241463046FEF78CFF6806DC
:101EF000050EFFF763FF641CE4B2082CD9D3BDE8DC
:101F0000F0810000000C014070B501220E4D54021A
:101F100021462846FEF777FF012216023146284661
:101F2000FEF771FFFFF74AFF002221462846FEF721
:101F30006AFFFFF743FF002231462846FEF763FFA2
:101F4000BDE87040FFF73ABF000C014070B50B4D83
:101F50004FF40074002221462846FEF754FF012268
:101F600011022846FEF74FFFFFF728FF21462846BB
:101F7000BDE870400122FEF746BF0000000C0140A2
:101F800070B50122104D540221462846FEF73BFF52
:101F9000FFF714FF0122160231462846FEF733FFF1
:101FA000FFF70CFF21462846FEF728FF08B1012461
:101FB00000E00024002231462846FEF724FFFFF708
:101FC000FDFE204670BD0000000C01407CB51446AB
:101FD0000D4606466B4606223B21682000F0A6F817
:101FE00000280BD1BDF8001049BA3180BDF80210AD
:101FF00049BA2980BDF8041049BA21807CBD7CB55E
:1020000014460D4606466B4606224321682000F022
:102010008DF800280BD1BDF8001049BA3180BDF809
:10202000021049BA2980BDF8041049BA21807CBD4C
:1020300008B56B4602224121682000F077F8BDF810
:10204000000040BA00B2FEF739FB0022074BFEF752
:10205000B8FA074A074BFEF79BF9FEF780FB0649E3
:10206000FEF71AF9FEF73BFB00B208BD00407540D1
:10207000A4703D0AD74342400000C84210B5FFF7A4
:10208000A3FE80216B2000F0C0F86420FEF7B4FDB1
:1020900000216B2000F0B9F8032000F082F8002046
:1020A00000F07AF8322000F099F80021382000F092
:1020B000ACF800216A2000F0A8F80021232000F0ED
:1020C000A4F88021372000F0A0F8752000F011F866
:1020D000682801D0012010BD01216B2000F095F887
:1020E00000216C2000F091F8322000F077F80020F9
:1020F00010BD10B50446FFF707FFD020FFF7D0FE54
:10210000FFF73EFF2046FFF7CBFEFFF739FFFFF753
:10211000FBFED120FFF7C4FEFFF732FF0020FFF7E0
:102120008DFE0446FFF712FF204610BD2DE9F04159
:102130001D4614460F460646FFF7E6FE7006000EE3
:10214000FFF7AEFEFFF71CFF20B1FFF7FFFE0120F7
:10215000BDE8F0813846FFF7A3FEFFF711FFFFF758
:10216000D3FE012000EB4600C0B2FFF799FEFFF757
:1021700007FF09E0012C0DD05FF00100FFF75EFEC4
:10218000641E05F8010BE4B2002CF3D1FFF7DEFE6C
:102190000020DDE70020F1E7C006010E1C2000F062
:1021A00034B8C006010E1B2000F02FB8BC2801D3A4
:1021B000012110E0622801D302210CE02A2801D37A
:1021C000032108E0142801D3042104E00A2801D3E4
:1021D000052100E006211A2000F017B810B50446CA
:1021E0004FF47A70844201D9044602E0042C00D2F4
:1021F0000424B0FBF4F0401EC1B2192000F005F831
:102200006008BDE81040FFF7D1BF70B50C46054629
:10221000FFF77AFED020FFF743FEFFF7B1FE50B97B
:102220002846FFF73DFEFFF7ABFE2046FFF738FEDE
:10223000FFF7A6FE18B1FFF789FE012070BDFFF77A
:1022400085FE002070BD2DE9F0411E4615460F4663
:102250000446FFF759FE6006000EFFF721FEFFF768
:102260008FFE60B93846FFF71BFEFFF789FE00249A
:102270000CE0305DFFF714FEFFF782FE20B1FFF7A0
:1022800065FE0120BDE8F081641CE4B2AC42F0D3ED
:10229000FFF75CFE0020F5E7094808B5816941F0C9
:1022A00020018161816901F020010091816941F083
:1022B00004018161806900F00400009008BD000005
:1022C0000010024010B58EB00024079408940994C1
:1022D0000A940B941C2168460C94FDF76DFF20486E
:1022E0001E49016040F2CF21C0E9011440F2CF71D4
:1022F000C0E9031480218161FFF7DEF808B1FEF721
:102300000AFC4FF48050079007A91548FFF720F901
:1023100008B1FEF700FC1248FFF7AFFA08B1FEF76C
:10232000FAFB0B940BA90E480C94FFF791F808B137
:10233000FEF7F1FB602000904B20CDE90104002264
:10234000694607480494FFF732FA08B1FEF7E3FB49
:102350000348FFF705FA0EB010BD0000000400406E
:10236000500000200C4810B50A4901604FF4E131DB
:102370004160002181600C22C160C0E904128161CA
:10238000C161FFF731FC002803D0BDE81040FEF723
:10239000C2BB10BD0044004098000020FEE7FEE7ED
:1023A00070477047FEF73ABD30B58FB028216846B8
:1023B000FDF702FF14210AA8FDF7FEFE0121080423
:1023C000CDE900100024029402250491CDE90750C4
:1023D0004FF4E01009906846FEF794FE08B172B61B
:1023E000FEE70F20CDE90A054FF48060CDE90C40EF
:1023F00002210AA80E94FEF7A9FD002801D072B6AA
:10240000FEE70FB030BD70470148FFF710B900007C
:1024100050000020F0B50268194B1A4C1A4D4FF0CD
:102420008047984205D0B84203D0A04201D0A842CC
:1024300003D122F070064A683243984205D0B84270
:1024400003D0A04201D0A84203D122F44074CA684C
:1024500022434C6922F08002224302608A68C262F1
:102460000A688262984201D10969016301214161D0
:102470000169C90703D0016921F001010161F0BDC3
:10248000002C0140000400400008004010B501F09D
:102490001F030121046A99408C430462016A9A4037
:1024A0001143016210BD10B5846842EA032224F48E
:1024B0007F440A432243826010BD826822F070028A
:1024C0000A4342F0070181607047000030B5036A9B
:1024D000026A22F0010202624268846924F07305F4
:1024E0000C682C4323F002058B682B430A4DA8424D
:1024F0000BD123F00805CB6822F440722B434D69C1
:1025000023F0040315438A692A43426084614968C1
:102510004163036230BD0000002C014030B5026A07
:10252000036A23F010030362436884690D6824F48E
:10253000E64444EA05248D6822F0200242EA0512AE
:102540000B4DA8420ED1CD6822F0800242EA05125E
:102550004D6923F4406343EA85038D6922F040020C
:1025600043EA85034360846149688163026230BD48
:10257000002C014030B5036A026A22F480720262C4
:102580004268C46923F4007324F073050C682C437B
:102590008D6843EA05230C4DA8420ED1CD6823F483
:1025A000006343EA05234D6922F4405242EA0512D2
:1025B0008D6923F4806342EA05124260C461496870
:1025C000C163036230BD0000002C014030B5046AD5
:1025D000026A22F4805202624268C3690D6823F4E1
:1025E000E64343EA05238D6824F4005444EA0534A5
:1025F000064DA84204D14D6922F4804242EA851278
:102600004260C36149680164046230BD002C01402E
:1026100010B5036A046A24F001040462846924F09A
:10262000F00444EA021423F00A020A4384610262BD
:1026300010BD10B5036A046A24F0100404628469B2
:1026400023F0A00324F4704444EA023243EA011167
:102650008261016210BD10B5406A0021C185C1844C
:10266000FFF78BF910BD01680C3151E8002F22F4FF
:10267000907241E80023002BF5D10168143151E834
:10268000002F22F0010241E80023002BF5D1016B5D
:10269000012909D101680C3151E8002F22F0100204
:1026A00041E80023002BF5D1202180F842100021C1
:1026B0000163704708B590F84210222901D002202A
:1026C00008BD82684FF480539A4201D1016921B15B
:1026D000816A9A421BD04AB10AE00268816A526854
:1026E000C2F308020A80816A891C08E0026972B19B
:1026F0000268526802F07F020A70816A491C816296
:10270000C18D491E0904090CC18503D01BE0026874
:102710005268F1E70168CA6822F02002CA600168C5
:10272000CA6822F48072CA6001684A6922F0010214
:102730004A61202180F8421000214163026B012A86
:1027400003D0FFF7C3FA002008BD016301680C3114
:1027500051E8002F22F0100241E80023002BF5D1B0
:1027600001680A68D20602D50A6849680091818D1D
:10277000FFF702F9E7E7000070B504460068016959
:10278000E26821F44051114301612169A0680843C6
:10279000616908432168CA6841F20C639A430243A5
:1027A000CA6020684169A26921F440711143416106
:1027B0001E492068884202D1FEF76EFC01E0FEF758
:1027C0005BFC00EBC00101EB00126068642180003B
:1027D000B2FBF0F3B3FBF1F36FF018067343B2FBF7
:1027E000F0F5B2FBF0F605EB8305322303EB05159C
:1027F000B5FBF1F5B6FBF1F605F0F00505EB0615B6
:10280000B2FBF0F6B2FBF0F0B0FBF1F06FF01802A3
:10281000504306EB800003EB0010B0FBF1F02168A1
:1028200000F00F002844886070BD000000380140AF
:102830002DE9F843984617460D460446089E24E0C5
:10284000701C22D0FEF7E4FAA0EB0800B0421AD8C0
:10285000CEB12068C168490717D5802D15D0402D0D
:1028600013D00168C94309070FD4016800254068E7
:1028700000902046FFF7F7FE0820606484F840507F
:102880000120BDE8F8830320FBE72068006835EAF3
:10289000000004D00020B842D2D00020F1E701208F
:1028A000F9E700000148FFF769B800009800002030
:1028B000FEE700000FB4054B10B503A9044A0298C7
:1028C00000F06CF910BC5DF814FB0000A542000894
:1028D00048000020490050EAC12018BF04204A0DDA
:1028E00018BF40F0010040F2FF72B2EB515F08BF29
:1028F00040F00200012808BF052070470907090EB3
:10290000002804DB00F1E02080F80014704700F09C
:102910000F0000F1E02080F8141D70472DE9F04110
:102920004F1E00EBC7010446D1E9000115461E46C3
:1029300037F006020DD02A463346FDF7D0FD7F1E44
:1029400004EBC703D3E90023FDF722FD37F00602AD
:10295000F1D1022F25D0042F13D0062F18BFBDE8C8
:10296000F0812A463346FDF7BAFDD4E90A23FDF784
:102970000FFD2A463346FDF7B2FDD4E90823FDF7E3
:1029800007FD2A463346FDF7AAFDD4E90623FDF7E5
:10299000FFFC2A463346FDF7A2FDD4E90423FDF7E8
:1029A000F7FC2A463346FDF79AFDD4E90223FDF7EA
:1029B000EFFC2A463346FDF792FDD4E90023BDE83B
:1029C000F041FDF7E5BC0122FDF7E1BFFDF7E0BCFA
:1029D0000022134610461146FDF7F3BD024A0020BF
:1029E0001107FDF7D4BF000001FDFFFF02E008C89A
:1029F000121F08C1002AFAD170477047002001E079
:102A000001C1121F002AFBD1704700000149086074
:102A1000704700004C0000202DE9FF5F82B00021CC
:102A2000DDE90430020DDDF840B0034318D044F670
:102A30001050A2F2FF3242431514119801281FD002
:102A4000A5EB0B00401C5FEA000A4FF000064E4F5A
:102A5000DFF83891B046504615D5CAF1000413E0AE
:102A6000119801244AA3012801D16FEA0B010298B1
:102A7000119AC0E90031C0E9024206B0BDE8F09FFA
:102A8000CBF10000DFE704460021404A491842EB41
:102A90000450CDE9001012E0E00707D032463B4673
:102AA00040464946FDF71BFD8046894632463B4677
:102AB00010461946FDF713FD06460F466410002C1C
:102AC000EAD1DDE90401DDE90023BAF1000F06DAFD
:102AD000FDF705FD42464B46FDF701FD05E0FDF71C
:102AE00070FD42464B46FDF76CFD04460E46002243
:102AF000284BFDF793FF03D84FF0FF30014607E066
:102B00000022254B20463146FDF742FCFDF756FFDB
:102B1000102409E0002C0ADB0A220023FDF751FEF5
:102B2000039B30321A55641E50EA0102F2D1641C34
:102B3000039AC4F111031444119A012A03D001220B
:102B400008430DD10AE0084304D000204FF0110BD8
:102B5000119072E7A3EB0B056D1E0DE05B4504DDE4
:102B60004FF0000205F1010504E003DA4FF0000226
:102B7000A5F10105002AECD002981199C0E90231B3
:102B8000C0E9004579E70000000014400000F03F74
:102B9000300000000000F0430000E03F2DE9FF4F4F
:102BA00095B09A46884606460025EEE1252877D15D
:102BB00000242746F94A0121039400E0044316F853
:102BC000013F203B01FA03F01042F7D130782A2868
:102BD00011D06FF02F033078A0F13002092A16D8F7
:102BE000039A44F0020402EB820203EB4202104417
:102BF000761C0390EFE758F8042B0392002A03DABF
:102C0000504244F40054039044F00204761C30789F
:102C10002E2816D116F8010F44F004042A280DD0EE
:102C20006FF02F023078A0F13003092B09D807EBA1
:102C3000870302EB4303C718761CF3E758F8047BBD
:102C4000761C30786C280FD006DC4C2817D068280A
:102C50000DD06A2814D104E0742810D07A280FD13E
:102C60000DE044F400140AE044F4801401E044F45C
:102C700040147278824202D104F58014761C761CCE
:102C8000307866280BD013DC582877D009DC002870
:102C900075D04528F6D04628F4D047281AD193E1BC
:102CA00018E0632835D0642879D0652812D18BE1EB
:102CB000702873D008DC6728F1D069286FD06E289F
:102CC0000DD06F2806D1ACE073282CD0752874D0B5
:102CD000782853D05246179990476D1C54E1C4F39D
:102CE0000250022809D003280DD0D8F8001004287B
:102CF0000DD00D6008F1040846E1D8F80010EA177D
:102D0000C1E90052F6E7D8F800100D80F2E70D7027
:102D1000F0E718F8041B8DF8001000208DF8010072
:102D2000EB46012003E058F804BB4FF0FF30610789
:102D30004FF0000102D40DE009F101018946B942CA
:102D40000FDA8145F8DB1BF809100029F4D108E0FF
:102D500009F1010189468142FADB1BF809100029BB
:102D6000F6D103985346A0EB090721463846179A37
:102D700000F080FA284400EB090507E044E008E190
:102D80000DE01BF8010B524617999047B9F1010964
:102D9000F7D2534621463846179AF2E039E00A2125
:102DA000C4F302524FF0000B0091022A06D058F8EB
:102DB000040BC117032A09D00AE023E008F1070039
:102DC00020F00702F2E80201904605E000B2C117C8
:102DD000042A01D140B2C117002906DA0A460021AF
:102DE000404261EB02012D2202E0220504D52B2294
:102DF0008DF80420012203E0E20701D02022F7E74A
:102E0000914657E00A2100E010214FF0000B00919D
:102E10000BE010214FF0000B44F004040827009150
:102E200003E008204FF0000B0090C4F30252022A86
:102E300005D058F8040B0021032A08D008E008F157
:102E4000070020F00702F2E80201904603E080B29A
:102E5000042A00D1C0B24FF0000922072AD53278E7
:102E6000702A07D0DDF800C08CF0100C5CEA0B0C67
:102E700005D00EE040228DF80420012208E050EA3F
:102E8000010306D030238DF804308DF8052002228E
:102E90009146009B83F0080353EA0B030AD150EAE2
:102EA000010201D1620705D530228DF804204FF0D0
:102EB00001097F1E3278582A04D039A20C920CAA3C
:102EC00002920BE03BA2F9E75B46009AFDF779FC22
:102ED0000C9B9B5C029A521E0292137050EA0102F4
:102EE000F2D1029804A9081A00F1200B600702D55C
:102EF00024F4803400E001275F4502DDA7EB0B00DE
:102F000000E0002000EB0B01009003984944401AB8
:102F10000390E00306D453462146179A039800F025
:102F2000A9F90544002706E001A85246C05D17999B
:102F300090476D1C7F1C4F45F6DBE0030CD55346D4
:102F40002146179A039800F095F9054404E03020D3
:102F50005246179990476D1C0099481E0090002911
:102F6000F5DC08E00298029952460078491C02916B
:102F7000179990476D1CBBF10001ABF1010BF1DC1F
:102F80005BE100F065F90544761C307800287FF499
:102F90000DAE19B02846BDE8F08F000009280100E9
:102FA00030313233343536373839616263646566BF
:102FB0000000000030313233343536373839414281
:102FC0004344454600000000600700D4062708F18E
:102FD000070020F00700F0E80223804603F0004CD1
:102FE0005FEA0C0001D097A009E0200501D596A06A
:102FF00005E0E00701D095A001E0AFF24C0013908E
:10300000307823F0004365280CD006DC452809D031
:1030100046281DD047287FD13BE0662818D0672876
:103020007AD136E00021112F01DB112000E0781C5D
:10303000CDE9000104A90CA8FFF7EEFCDDE90D01C4
:103040000C9A4FF0000B07F10109109200914EE02D
:103050004FF000400097CDE9011004A90CA8FFF73C
:10306000DBFCDDE90D020C9B0F994FF0000B914644
:103070001093009211B9791C00EB0109B7EB09001C
:1030800003D4C0F1FF3B07F10109A9EB0700019050
:1030900042E0012F00DA01270021112F01DD11206C
:1030A00000E03846CDE9000104A90CA8FFF7B4FC04
:1030B000DDE90D010C9A00914FF0000BB94610921A
:1030C00021070FD4009A4A4503DA914601E0A9F19D
:1030D0000109B9F1010F05DD109AA9F10101515C57
:1030E0003029F4D0B84202DA10F1040F03DA0121DA
:1030F000CDE9011010E0002803DC8344A9EB0001B6
:1031000002E0411C494500DD8946A0EB0B00401C54
:1031100001904FF000400290200705D401984845E7
:1031200002DB4FF0FF30019000208DF84B00029839
:103130000DF14B07B0F1004F25D002200C902B2051
:103140000D90029800280CDA404202902D200D903C
:1031500007E00A210298FDF71EFB3031029007F8C4
:10316000011D0C99481E0C900029F2DC02980028E1
:10317000EFD1791E0D980870307800F0200040F0F3
:10318000450007F8020D11A8C01BC01D029013983E
:10319000007800B1012000EB0901019801EBE0711A
:1031A000029801440398401A401E0390E00306D49D
:1031B00053462146179A039800F05CF8054413988B
:1031C000007818B15246179990476D1CE00323D53B
:1031D00053462146179A039800F04CF805441BE02B
:1031E000BBF1000F07DB0098584504DD10981799D4
:1031F00010F80B0001E017993020524690470198D3
:103200000BF1010B401E05F10105019004D12E20A8
:103210005246179990476D1CB9F10001A9F10109B7
:10322000DEDC05E017F8010B5246179990476D1C3C
:103230000299481E02900029F4DC53462146179A51
:1032400003989EE62D0000002B00000020000000E7
:103250002DE9F041044600251E461746880404D493
:1032600005E039462020B0476D1C641EF9D528467C
:10327000BDE8F0812DE9F041044600251E46904648
:10328000C80301D5302700E02027880404D505E0D5
:1032900041463846B0476D1C641EF9D52846BDE846
:1032A000F08100002DE9FE4F07460E4600256846D6
:1032B00001F004F800246FF00F0AE8464FF001090E
:1032C00057F8240056F82410401A00D54042FDF764
:1032D000E7F95146FDF750F858F8241011F0FF4F68
:1032E0000BD0FDF70BF84FF07E51FCF7CFFF0A49EA
:1032F00020F00040884205DC07E0084908440849FE
:10330000884202D309FA04F00543641C032CD7DB7E
:103310002846BDE8FE8F0000295C0F3E666666C148
:103320009A99D9002DE9F04D8D4F21F0004A86B0D1
:1033300005460C46BA452ADBAAEB070028430AD00B
:103340008848824501DC1AD1CDB106B02846BDE8D7
:10335000F04DFFF738BB844A844B2846FDF7BFF891
:1033600007460E46824A834B28462146FDF7B7F8AA
:1033700006B03A463346BDE8F04DFDF709B80120E6
:10338000FFF744FB06B0BDE8F04DFFF721BB7A48DC
:10339000824542DABAF1795F0BDA2846FFF79AFAEA
:1033A000042808BFFFF71AFB284606B02146BDE8EF
:1033B000F08D2A460B461046FDF791F883460246EB
:1033C0006E480E460B4606217844FFF7A7FA5A4688
:1033D0003346FDF784F8804669488A465A463346A4
:1033E00004217844FFF79AFA5A463346FDF777F8F6
:1033F00000223B46FCF7CCFF02460B4640465146B6
:10340000FDF7DFF82A462346FDF769F806B02A469D
:103410002346BDE8F04DFCF7BBBF284624F0004131
:1034200000223D463B46FDF757F84FF0FF32FDF7CF
:10343000AEFA0646024653480F460B46062178442C
:10344000FFF76CFA32463B46FDF749F8CDE900013B
:103450004D4832463B4604217844FFF75FFA324636
:103460003B46FDF73CF800222B46FCF791FF8346D4
:1034700002913046394602F0D9F9804643480D465C
:10348000504517DCDDE900015A46029BFDF799F82B
:1034900042462B46FDF723F842462B46FCF778FFC1
:1034A0000122FDF774FA304A304BFDF712F8304A2A
:1034B000304B4CE04FF0000A52460B464046FCF7BA
:1034C00067FFCDE9031052462B4610461946FDF71B
:1034D00006F832463B46FCF7FFFFDDE90332FDF715
:1034E00070F806460F46DDE900015A46029BFDF7DB
:1034F00068F883460091012230463946FDF747FAC5
:10350000194A1A4BFCF7E8FF06460F4601224046CF
:103510002946FDF73CFA5A46009BFCF7E0FF32468D
:103520003B46FCF7D6FF06460F4601225046294689
:10353000FDF72DFA0E4DDFF858802A464346FCF77A
:10354000CBFF32463B46FCF7C7FF2A464346FCF713
:10355000C3FF002CD8BF81F0004106B0BDE8F08D5C
:103560000000F03F0000F07F075C143326A6913C7A
:10357000182D4454FB21F93F0000E03F24310000A6
:103580003A310000AE300000C43000003333EF3F6A
:10359000FB21E93F2DE9F84F04460D4621F000409C
:1035A00000917349814211DC7249884201DC06D1E5
:1035B0002CB120462946BDE8F84FFFF704BA6E4803
:1035C000002DCCBF6D496E49BDE8F88F6D49814231
:1035D00011DD6D498142D8BF4FF0FF366DDD2046C9
:1035E0002946FFF777F9042808BFFFF7F7F92046C7
:1035F0002946BDE8F88F6549654F25F000458142B1
:1036000033DD6449814219DD002632464FF08043A4
:1036100020462946FCF7BCFE80468A460122204609
:103620002946FDF7B4F900223B46FCF752FF42461B
:103630005346FCF7C6FF04460D463EE00126002235
:10364000BA463B4620462946FCF7A2FE80460F4676
:103650000022534620462946FCF73BFF42463B46A4
:10366000FCF7AFFF04460D4627E04B4981421BDDC6
:10367000DFF828A102260022534620462946FCF7FF
:103680002EFF00223B46FCF783FE80460F460022B9
:10369000534620462946FCF71CFF42463B46FCF7B2
:1036A00090FF04460D4608E0032622462B460020E4
:1036B0003B49FCF786FF04460D4622462B46104642
:1036C0001946FCF70CFF8B46824602460B46FCF778
:1036D00006FF07460246334888460B4606217844D3
:1036E000FFF71CF952465B46FCF7F9FE82462E486E
:1036F0008B463A46434605217844FFF70FF93A4690
:103700004346FCF7ECFE02460B46002E5046594657
:103710000CDAFCF73DFE22462B46FCF7E0FE01B03A
:1037200022462B46BDE8F04FFCF7D6BEFCF730FE34
:1037300022462B46FCF7D3FE1C4A7A4402EBC60312
:10374000D3E90023FCF7C5FE22462B46FCF7C1FE59
:10375000174A7A4402EBC603D3E90023FCF7BCFE08
:10376000009A002AB8BF81F00041BDE8F88F000040
:10377000000010440000F07F182D4454FB21F93F55
:10378000FB21F9BF0000DC3F0000203E0000F33FBA
:103790000000F03F0000E63F008003400000F83FDB
:1037A0000000F0BFC62E0000842E0000222E000074
:1037B000EA2D00002DE9F04D9446CCF1000423F0F1
:1037C00000464CEA0404594F46EAD4749A468846A7
:1037D00021F00042BC4206D8454240EA050442EAD4
:1037E000D474BC4204D9BDE8F04D6246FFF7EEB890
:1037F000AAF14055A5F17F6555EA0C040BD00224CF
:1038000004EAAA744A4DDFF82CE144EAD87452EA7B
:10381000000B04D00CE0BDE8F04DFFF7BBBE002C60
:1038200014BF012CBDE8F08D022C30D0032C32D017
:1038300056EA0C0B0AD0BE4220D1BA4209D126F07A
:10384000804622F080423346114617E000291ADBF9
:1038500025E0DFF8E4B0FB44002C04BFDBE9000105
:10386000BDE8F08D012C02BFDBE9000181F00041D1
:10387000BDE8F08D022C0AD0032C0CD0BA4212D134
:10388000B8F1000F0BDA2A482C49BDE8F08D284624
:103890002B49BDE8F08D28467146BDE8F08D2448DF
:1038A0002849BDE8F08D921B12153C2AC4BF204F59
:1038B000244E10DCBAF1000FBEBF12F13C0F0027FE
:1038C0003E4608DB6246FCF77CFE21F00041FFF734
:1038D00061FE07460E4694B1012C08BF86F00046F3
:1038E0000DD0194A194B022C3846314615D0FCF739
:1038F000F0FD2A46BDE8F04D114BFCF7EABD002271
:10390000134638463146FDF771F804BF0220FFF731
:103910007DF838463146BDE8F08DFCF7DAFD2A46E1
:10392000BDE8F04D064BFCF7D7BD00000000F07F6E
:10393000182D4454FB2109C07E2D0000FB21F9BF46
:10394000FB210940FB21F93F075C143326A6A13C6B
:1039500008B560B120208DF8000028208DF8010006
:1039600030208DF8020038208DF8030004E0A322F7
:1039700004216846FCF719FC6A46042140F69E20A3
:1039800001F0BEFE01F07CFB08BD00003EB5044620
:1039900002208DF80000CA208DF80100E3208DF888
:1039A000020009208DF803006A460421682001F016
:1039B000A7FEA3208DF80000610609D5C0218DF86F
:1039C0000110C8218DF80210C2218DF8031005E006
:1039D0008DF801008DF802008DF8030014F4C07F0B
:1039E00009D0C4218DF80410CC218DF80510C62112
:1039F0008DF8061005E08DF804008DF805008DF8AF
:103A000006008DF808008DF807008DF809006A4659
:103A10000A2140F6A72001F073FEA0074FF0D80559
:103A200003D020208DF8000001E08DF800506A4698
:103A3000012140F6B62001F063FEA00601D5012069
:103A400000E0002000F08EF814F4C07F1ED0E005E6
:103A50000AD5B2208DF800008B208DF80100B62029
:103A60008DF802009B2009E0B0208DF80000802036
:103A70008DF80100B4208DF8020090208DF803002D
:103A80006A46042140F6A22001F03AFEE1074FF415
:103A90000B6022D0F8218DF800106A46012101F058
:103AA0002FFEFA21072000F049FB072000F014FB4D
:103AB000012000F031FB642000F0D4FB4FF4FA70D9
:103AC00000F0E0FBC821254800F0CEFA282000F0E5
:103AD000E3FA0A2000F0F0FA05E08DF800506A469B
:103AE000012101F00DFEA00703D5D9208DF80000BB
:103AF00001E08DF800506A46012140F23D7001F06E
:103B0000FFFD600701D5012000E0002000F048F82B
:103B1000E00601D5012000E00020FFF719FF104D5D
:103B200044F00800688101F0ABFA0020A873600639
:103B300001D50620A87314F4C07F02D0A87B801D95
:103B4000A87314F0140F02D0A87B1030A873A0073C
:103B500002D0A87B001DA87300203EBD09E3CA0265
:103B6000E00000200EB54FF4976310B106A107C91D
:103B700001E008A207CA8DE807006A460921184635
:103B800001F0BEFD0EBD0000B8AAB38DB4980D358E
:103B90005D000000B8AAAAAAB088C3C5C70000008B
:103BA00008B560B1C0208DF80000C2208DF801007A
:103BB000C4208DF80200C6208DF8030004E08B229B
:103BC00004216846FCF7F1FA6A46042140F6982081
:103BD00001F096FD01F054FA08BD0000C8234FF42F
:103BE0008062024940F6F63001F02CB9F458000822
:103BF0002DE9FF4F89B01746DDE916520024544ED7
:103C0000884681462C80A246B07B694601F0C6F901
:103C10004FF0FF3B18B158460DB0BDE8F08F7089EA
:103C200010F0140F4CD0BDF800109DF8022049BAD6
:103C3000090441EA02239DF803100B433B60BDF8E1
:103C400004109DF8062049BA090441EA02229DF8B1
:103C500007101B140A437A60BDF808109DF80A404B
:103C600049BA090441EA04219DF80B40121421438A
:103C7000B960BDF80C409DF80EC064BA240444EA53
:103C80000C2C9DF80F4009144CEA040CC7F80CC02A
:103C90004FEA2C475B43494302FB023207FB071103
:103CA00011441024A1F17061B1F1007F04D901F039
:103CB000E7F9A5F800A0AEE7298841F480712980D2
:103CC0004206694611D50A19A41D13885BBAA8F8E3
:103CD000003053885BBAA8F80230928852BAA8F82C
:103CE00004202A8842F008022A8010F4C07F11D0F4
:103CF0000A19A41D13885BBAA9F8003053885BBA6F
:103D0000A9F80230928852BAA9F804202A8842F011
:103D100070022A80800716D00C44E07800F0C005BD
:103D200000F03F016078C00706D0C80801F0070125
:103D30003268491C02B190476078000703D571686A
:103D400009B1A80988470C9800F0C8FD002063E776
:103D5000E00000202DE9FF41044603A800F028FF01
:103D6000BDF80C00410CC3032F48008900F003028A
:103D700054F82250420700D56D42C0F3C1028606B6
:103D800054F8222000D55242C0F38116C00554F8E1
:103D9000264000D56442A5FB0367E81700FB0370CB
:103DA00005FB0100850045EA9670A2FB0367D51765
:103DB00005FB037502FB0152950045EA9672A4FBD0
:103DC0000367E51705FB037304FB01318B0043EA2E
:103DD0009671030E8DF80030030C8DF80130030A44
:103DE0008DF802308DF80300100E8DF80400100CD1
:103DF0008DF80500100A8DF80600080E8DF80800F1
:103E0000080C8DF80900080A8DF80A008DF80720C3
:103E10008DF80B106A460C214FF4257001F070FCF0
:103E200004B0BDE8F0810000E000002030B5044699
:103E300013A285B007CA8DE807004FF0FF35C82CE4
:103E400016D8C820B0FBF4F1491E080A8DF80C0002
:103E50008DF80D1003AA022140F2162001F050FC4B
:103E600030B96A460C2140F6C12001F049FC10B17E
:103E7000284605B030BD054884810020F9E70000E0
:103E8000FEF2ABC4AAF1DFDFBBAFDFDFE000002052
:103E9000F8B53049098901F0030250F822404A0779
:103EA00000D56442C1F3C1028B0650F8222000D530
:103EB0005242C1F3811350F82330C80500D55B424C
:103EC000254984FB0140850045EA947082FB01424C
:103ED000A40F44EA820483FB0121950F45EA810582
:103EE000010E8DF80010010C8DF80110010A8DF8FB
:103EF00002108DF803006A4604214FF4747001F03B
:103F0000FFFB4FF0FF3688B9200E8DF80000200C23
:103F10008DF80100200A8DF802008DF803406A46F2
:103F200004214FF4757001F0EBFB08B13046F8BD89
:103F3000280E8DF80000280C8DF80100280A8DF855
:103F400002008DF803506A4604214FF4767001F0A8
:103F5000D7FBF8BDE000002009E3CA022DE9FF41CC
:103F600004463CA004F00303006802903AA00068F5
:103F700003903AA006683AA0056802A8C15C8DF8D3
:103F80000010C4F3C101425C8DF80120C4F381121A
:103F9000805C8DF8020003A8C35C8DF80430415C9E
:103FA0008DF80510805C8DF806006A46032140F20A
:103FB000264001F0A5FB4FF0FF37E0BB01AA03212B
:103FC00040F22A4001F09CFBA8BBCDE900656007E8
:103FD0000BD59DF8000040F001008DF800009DF821
:103FE000040040F001008DF80400A0060BD59DF8F8
:103FF000010040F001008DF801009DF8050040F03F
:1040000001008DF80500E0050BD59DF8020040F099
:1040100001008DF802009DF8060040F001008DF8C7
:1040200006006A4603214FF4886001F069FB10B96D
:1040300001AA032100E004E040F2314001F060FBFE
:1040400018B1384604B0BDE8F0810648048100206C
:10405000F8E700004CCD6C000CC92C0036567600F9
:1040600026466600E00000204FF47A7290FBF2F0E2
:1040700008B54843010E8DF80010010C8DF80110B1
:10408000010A8DF802108DF803006A4604214FF4EE
:10409000AE7001F035FB08BD0521B0FBF1F008B5AD
:1040A000010A8DF800108DF801006A4602214FF4D4
:1040B000AD7001F025FB08BD0521B0FBF1F008B59E
:1040C000010A8DF800108DF801006A4602214FF4B4
:1040D000AC7001F015FB08BD08B500218DF800108B
:1040E000C10702D030218DF80010810705D59DF859
:1040F000001041F00C018DF80010400705D59DF827
:10410000000040F003008DF800006A4601214FF4E2
:10411000A47001F0F5FA08BD08B560B1042800D913
:104120000420401E8DF800006A46012140F24F1025
:1041300001F0E6FA08BD0120F3E700002DE9FC419B
:10414000054640074FF0FF367CD0B1F5C86F79D8EF
:104150000846FCF7AEFA3E49FCF7D0F8074601A83E
:1041600000F008FD9DF80400022806D004280DD0B8
:1041700008282ED0102865D134E00E213846FCF7EF
:10418000FBF8FCF7C5FA84B2324907E00D21384646
:10419000FCF7F2F8FCF7BCFA2F4984B23846FCF77A
:1041A0007BF8FCF7B5FA210A8DF8001080B28DF883
:1041B0000140010A8DF802108DF80300E8076C46F3
:1041C00020D0224602214FF4EA7001F099FAC8BBD0
:1041D00011E00C213846FCF7CFF8FCF799FA84B2CD
:1041E0001E49DBE70B213846FCF7C6F8FCF790FACE
:1041F00084B21B49D2E7A21C02214FF4927001F055
:104200007FFAF8B9A8070DD56A4602214FF4EC7081
:1042100001F076FAB0B9A21C02214FF4947001F0BB
:104220006FFA78B9680710D56A4602214FF4EE702C
:1042300001F066FA30B9A21C02214FF4967001F029
:104240005FFA10B13046BDE8FC810020FBE70000BA
:1042500000004843000040460000C04500004045C3
:104260000000C0440521B0FBF1F008B5010A8DF84B
:1042700000108DF801006A4602214FF4EF7001F042
:104280003FFA08BD0521B0FBF1F008B5010A8DF831
:1042900000108DF801006A4602214FF4ED7001F024
:1042A0002FFA08BD13B54FF0FF33012269460248CB
:1042B000FDF70DFD00981CBD980000202DE9FE4380
:1042C0000646264801AB042240680D210078FDF720
:1042D0002DFF10B10720BDE8FE839DF804101C20BF
:1042E00000EAD1029DF80710DFF87490C1F30113C2
:1042F0001A438DF800209DF80520C1F3810300EAE0
:10430000D2021A438DF801209DF8062001F0030126
:1043100000EAD20008430024124F8DF80200A046A4
:104320006D46285D10B146F824900AE046F82480D6
:104330000DE000BF56F824003946FBF7ADFF46F804
:104340002400285D401E10F0FF002855F2D1641CA7
:10435000E4B2032CE5D30020BDE7000010000020EC
:104360007B14AE3E1D5A843F2DE9FE4F05460120C9
:10437000C14E8DF800004FF000088DF801803068C4
:104380000C461746817C70686B4602220078FDF768
:104390005AFF4FF0FF3A00287AD1C820FCF72CFCD6
:1043A0008DF8008030686B460122C17B7068007810
:1043B000FDF749FF0028EFD130686B4601224179B3
:1043C00070680078FDF73FFF0028E5D130686B4644
:1043D0000122817C70680078FDF735FF0028DBD171
:1043E00030686B460122C17D70680078FDF72BFFB5
:1043F0000028D1D130686B460122017970680078BD
:10440000FDF721FF0028C7D14FF00C098DF800906F
:1044100030686B460122017970680078FDF713FF60
:10442000002835D10F20FCF7E7FBB06A6B4601226C
:10443000407A8DF800003068817870680078FDF768
:1044400002FF002824D1B06A6B460122007A8DF861
:1044500000003068417870680078FDF7F4FE0028AD
:1044600073D1B06A807A0FB140F0E0008DF800009F
:1044700030686B460122817970680078FDF7E3FEB1
:10448000002862D12FB1B06AC07A40F0E00001E0AC
:104490004AE018208DF8000030686B460122C1798F
:1044A00070680078FDF7CFFEF0BB17B1C820FCF7AD
:1044B000A3FB40208DF8000030686B460122017993
:1044C00070680078FDF7BFFE70BB78208DF80000A3
:1044D00030686B460122417970680078FDF7B3FEC1
:1044E00010BB3220FCF788FB8DF80080306847460F
:1044F0006B464179706801220078FDF7A4FE98B9F7
:1045000031687068B046897A00786B460222FDF700
:104510000DFE48B9BDF80000AF6040BAB0FBF9F03D
:104520006F60C6B22F6000E00FE0A7606760276091
:10453000002739E0D8F80010D8F804006B46C97A93
:1045400000780C22FDF7F2FD10B15046BDE8FE8F59
:10455000BDF80000236840BA00B2BDF80210BDF8F3
:1045600004201844206049BA606809B208446060B9
:1045700052BAA06812B21044A060BDF806002B68C1
:1045800040BA01B2BDF80800BDF80A2019442960FC
:1045900040BA696800B20844686052BAA86812B2AA
:1045A00010447F1CFFB2A860B742C3D3286883229F
:1045B000C117090441EA104100040023FBF7B4FDD0
:1045C00032460023FBF7B0FD286068688322C117DC
:1045D000090441EA104100040023FBF7A5FD32461F
:1045E0000023FBF7A1FD6860A8688322C1170904B6
:1045F00041EA104100040023FBF796FD32460023F8
:10460000FBF792FDA86020684FF40065C11709040C
:1046100041EA104100042A460023FBF785FD32469B
:104620000023FBF781FD206060682A46C11709045A
:1046300041EA104100040023FBF776FD32460023D7
:10464000FBF772FD6060A0682A46C117090441EAC1
:10465000104100040023FBF767FD32460023FBF7FF
:1046600063FDA060002802DDA0F5803001E000F5C8
:104670008030A060002069E7100000202DE9F84F8D
:1046800081462E488846002540686B460322007804
:104690000D21FDF74BFD10B10720BDE8F88F9DF807
:1046A0000000002400F01F008DF800009DF80100BC
:1046B0006FF00F0B00F01F008DF801009DF8020055
:1046C0006E4600F01F008DF802004FF0010A00BF97
:1046D00059F8241058F82400081A00D54042FBF776
:1046E000DFFF5946FBF748FE0746305DC0B114486E
:1046F00002E01449FBF7D0FD315D491E11F0FF01C6
:104700003155F6D101463846FBF7F8FD4FF07E51A2
:10471000FBF7BCFD0C4920F00040884205DC07E0B7
:104720000A483844B0F1D97F02D90AFA04F00543A7
:10473000641C032CCCDB2846AFE7000010000020EF
:104740000000C84154E3853F295C0F3E0000E0BEF5
:1047500000B5024600F00DF80346D01C00F009F841
:1047600043EAC003901D00F004F843EA801080B2D1
:1047700000BD90F90010002902DD4FF000007047E5
:1047800002DA4FF00400704790F90110002902DDB1
:104790004FF00100704702DA4FF00500704790F9C2
:1047A0000200002802DD4FF00200704702DA4FF0ED
:1047B000060070474FF007007047000090B0FCF70C
:1047C00035FBFDF7F1FDFDF767FDFDF7CBFDFDF7CF
:1047D00079FD00212E48FDF77FF8FDF74FFC00F032
:1047E00077F92CA0FEF766F80120FCF705FA06AA77
:1047F00008A907A800F09EF80028F8D10BAA0AA97A
:1048000009A8FDF7E3FB0EAA0DA90CA8FDF7F7FB1D
:10481000FDF70EFCFBF744FF2249FBF76FFDFBF7AA
:104820008BFF804689460698FBF786FF06460F46B3
:104830000798FBF781FF04460D460898FBF77CFFBD
:104840008DE8F00302460B4617A0FEF733F80698F2
:1048500010F1FF4F01D380F00040FBF76DFF1A4AC3
:104860001A4BFBF73CFE0022194BFBF791FDFBF7BF
:1048700076FF0446FBF74CFF05490968486320466C
:10488000FBF75AFF02460B4612A0FEF713F8ABE700
:1048900050000020494E495449414C20444F4E4558
:1048A000210D0A000000C842583A252E31662059D1
:1048B0003A252E3166205A3A252E316620252E3291
:1048C00066430D0A00000000721CC7711CC7F13F4F
:1048D00000004940252E33660D0A00007047000095
:1048E0002DE9F041124C20F00101002594F824003C
:1048F00010B10020BDE8F081A07A4FF0FF3668B11A
:104900000840277C2074884200D0354641B1012000
:1049100000F060FF00F0B4FB38B127743046E9E7DF
:10492000207D00B1012000F055FF2846E2E700009D
:10493000100000202DE9F74F8EB00CA902A8CDE998
:1049400000010BAB03AA09A907A8FFF751F918B199
:10495000012011B0BDE8F08FBDF80800C0057DD57D
:104960000398FBF79DFE6FF01D042146FBF704FD45
:1049700082460498FBF794FE2146FBF7FDFC814636
:104980000598FBF78DFE2146FBF7F6FC804606985E
:10499000FBF786FE2146FBF7EFFC0546012150465A
:1049A000FBF7EAFC06464146FBF776FC04464FF06F
:1049B00040414846FBF770FC07462946FBF76CFC74
:1049C0002146FBF711FCFBF7B7FEFEF7ABFC4FF0FF
:1049D000663B5A463D4BFBF782FDFBF7C0FE0E9946
:1049E000086001214046FBF7C7FC41460090FBF7F9
:1049F00053FC044638464946FBF74EFC2146FBF77C
:104A000045FC4FF07E51FBF7EFFBFBF795FE0746A9
:104A10000C4630464946FBF73FFC064629460098BF
:104A2000FBF73AFC3146FBF7DFFBFBF785FE3A4626
:104A30002346FEF7BFFE5A46244BFBF750FDFBF71B
:104A40008EFE0F99086029460846FBF725FC0746AD
:104A500041460846FBF720FC064600E034E04946A4
:104A60000846FBF719FC044651460846FBF714FCC0
:104A70002146FBF7B9FB3146FBF708FC3946FBF74B
:104A800005FCFBF759FE06460C4629465046FBF747
:104A900003FC054641464846FBF7FEFB2946FBF76B
:104AA000A3FB0121FBF768FCFBF746FE32462346D9
:104AB000FEF780FE5A46054BFBF711FDFBF74FFE54
:104AC00010990860002044E7022042E766A64C40A7
:104AD00010B5FDF779F900F0F1F808B10A2010BD22
:104AE000782000F0B1FD10F0FF0F01D0012010BDC3
:104AF0007820FFF7F5FE10F0FF0F01D0022010BD67
:104B0000642000F061FD10F0FF0F01D0032010BD04
:104B1000FFF764F810F0FF0F01D0042010BD144817
:104B2000FFF716FEFFF71AFA10F0FF0F01D005206D
:104B300010BD40F27310FEF729FF10F0FF0F01D0F7
:104B4000062010BD6420FFF771F910F0FF0F01D0AF
:104B5000072010BD00F0FEFD08B1082010BD0120A7
:104B600000F058FC10F0FF00F8D0092010BD000044
:104B70003C0000200D494A7A42B1012A08D0022A9D
:104B80000FD0032A0FD04FF0FF307047022200E011
:104B900004220270C97C11B11106C90D01700020F8
:104BA00070470822F5E71022F3E70000100000200C
:104BB0000F494A7A42B1012A09D0022A11D0032AA8
:104BC00012D04FF0FF3070474FF4804201E041F6C1
:104BD0009C720280C97C11B1C2F34E010180002099
:104BE00070474FF48052F4E74FF40062F1E70000A1
:104BF000100000200B49097A39B1012907D0022998
:104C00000AD003290BD0002103E0FA2101E04FF480
:104C1000FA710180002070474FF47A71F9E74FF480
:104C2000FA61F6E7100000200A49097A41B101292A
:104C300008D002290AD003290AD04FF0FF3070476C
:104C4000054900E005490160002070470449FAE782
:104C50000449F8E7100000200000034300008342ED
:104C600033330342333383410C49C97A072913D2C2
:104C7000DFE801F01204060A0C0E1000BC2100E06F
:104C800062210180002070472A21FAE71421F8E709
:104C90000A21F6E70521F4E70021F2E710000020E1
:104CA000054991F8242012B14FF0FF307047C989AF
:104CB0000180002070470000100000202DE9FC4119
:104CC0004C4C80208DF8000020686B460122817CCE
:104CD00060680078FDF7B7FA4FF0FF37002832D14F
:104CE0006420FBF789FF00258DF8005020686B4693
:104CF0000122817C60680078FDF7A5FA002870D158
:104D000020686B460622817D60680078FDF70EFA08
:104D1000002866D19DF805009DF80310C007400FDC
:104D200001F0010140EA41019DF801004FF0010648
:104D300000F00100014309D0012905D0022915D056
:104D40002DA0FDF7B7FD4CE0E67410E020686B463F
:104D50000122C17860680078FDF7E8F940BB9DF852
:104D6000000010F00F0020D0042822D0E574FF20AE
:104D700004F80A0F4FF6FF7104F8020C04F8010C56
:104D80006070A180A0712072A67026766576E572AB
:104D9000A572E56025616561A576E576A5834FF48A
:104DA000FA6000F073FB18B907E01D48FDF782FDBB
:104DB00017E01CA0FDF77EFDC6E7022000F088FA90
:104DC00078B92A2000F0CAFB58B9322000F0FCFB69
:104DD00038B90020FFF784FD18B9002000F0ACFAC4
:104DE00010B13846BDE8FC81002000F02DFC002009
:104DF000F8E7000010000020556E737570706F7238
:104E000074656420736F6674776172652070726F69
:104E100064756374207265762025642E0A00000094
:104E2000E065000848616C662073656E736974699B
:104E300076697479207061727420666F756E642E65
:104E40000A0000002DE9FF4FDFF89480064685B088
:104E500098F8250015460F464FF0FF39B0BBAFB3A9
:104E6000002420E0301B102800DD102080B2834693
:104E70003A1901469246204600F042FC30BB6A4691
:104E80005946204600F0D2F800BB50465A466946C3
:104E9000FBF79DF920B16FF0010009B0BDE8F08F7C
:104EA00004EB0B0084B2B442DCD3280A8DF8100066
:104EB0008DF81150D8F80000444604AB817ED8F834
:104EC000040002220078FDF7BEF908B14846E4E785
:104ED000012084F825000898E0840020DDE7000028
:104EE000100000202DE9F84305464FF0FF3928282F
:104EF00044D80727284C00267DB1012000F0FCFA99
:104F000020208DF800004FF00108012D17D0052D4D
:104F100018D88DF8018005201FE0002000F0ECFA81
:104F20008DF800608DF8017020686B460222817C4C
:104F300060680078FDF787F900BB267529E08DF8D9
:104F40000160E8E7142D04D802208DF801000A2042
:104F500003E003208DF80100142000F0FFFA9DF813
:104F600001006B4607EB80108DF8010020680222DB
:104F7000817C60680078FDF766F910B14846BDE8AD
:104F8000F8830820A072267384F814800020FFF7AD
:104F9000A7FC0020F3E70000100000202DE9F843F3
:104FA000214C0646174694F8240089464FF0FF38F6
:104FB00090B3A07A80B320686B460222817A606841
:104FC0000078FDF7B3F838BBBDF8000045BAB5422C
:104FD00002D2002038701FE060684188B5EB510FA5
:104FE00011D9216800786B46497C0122FDF79EF8B3
:104FF00090B99DF80000C00605D500F041F86FF0AB
:105000000100BDE8F8832068F2B24B46C17A6068BF
:105010000078FDF78BF808B14046F2E7B5FBF6F0F3
:10502000401E38700020ECE710000020F8B5160094
:105030000D464FF0FF371FD0104CA17AE1B1010AA5
:105040008DF80010C0B28DF80100411960684289E6
:10505000914211D8216800786B46097E0222FDF743
:10506000F2F848B92068EAB23346417D60680078BA
:10507000FDF75CF8002800D03846F8BD100000208D
:10508000F8B5564C4FF0FF36A07A00287DD00025A9
:105090008DF8005020686B460122C17B6068007863
:1050A000FDF7D1F8002870D120686B4601224179C4
:1050B00060680078FDF7C7F8002866D120686B4665
:1050C0000122017960680078FDF7BDF800285CD105
:1050D00094F82400E0B30C208DF8000020686B46A3
:1050E0000122017960680078FDF7ADF8002872D1DF
:1050F0003220FBF781FDC0208DF80000A07AC007A8
:1051000002D0E0208DF8000020686B460122017972
:1051100060680078FDF797F800285CD1607C18B1D2
:1051200002208DF8000001E08DF8005020686B46E9
:105130000122C17B60680078FDF785F828BB8DF8F7
:10514000005020686B4601224179606800783EE09B
:10515000FFE704208DF8000020686B4601220179EA
:1051600060680078FDF76FF878B9A07C90B9A07AF4
:10517000C0070FD05FF060008DF8000020686B461C
:10518000012201796068007800E024E0FDF75BF817
:1051900008BB01E04020EFE73220FBF72DFD607CEB
:1051A00018B101208DF8000001E08DF80050206852
:1051B0006B460122C17B60680078FDF744F850B966
:1051C0002068064B01224179606810330078FDF7B2
:1051D0003AF8002800D03046F8BD0000100000204A
:1051E0002DE9F047394C82468AB094F824000F46E6
:1051F00020B1002000F00EF9012600E0002607A8EB
:10520000FFF7F8FC06A8FFF7B5FC09A8FFF72CFD8F
:1052100008A8FFF745FD94F80A9094F8108000253F
:10522000002239465046FFF79FF810B16D1C022D41
:10523000F6DB022D1AD00025012203A96846FFF7EC
:1052400093F810B16D1C022DF6DB022D0ED003A9D0
:105250003846FEF727F8C7B269465046FFF70EFA00
:1052600010F0FF0F4FF0000502D002E0002503E030
:1052700001250FB945F00205FF2020726072E0722F
:105280004FF6FF71E181A072207401202073BDF8F8
:105290001C0000F0FBF89DF8180000F019F8BDF8AC
:1052A000240000F05BF9BDF8200000F08DF94846BD
:1052B00000F0CAF94046FFF713FB16B1012000F0D9
:1052C000A9F80AB02846BDE8F087000010000020C9
:1052D00038B5184C4FF0FF35A17A19B3022806D023
:1052E000042806D008280ED010281BD10DE000207D
:1052F00000E008208DF80000607A9DF80010B0EB07
:10530000D10F04D005E01020F4E71820F2E70020C8
:1053100038BD20686B460122C17960680078FCF7CF
:1053200092FF08B1284638BD9DF80000C0086072A1
:10533000EDE7000010000020F8B5354C0546A07CD4
:10534000A84201D10020F8BD31484FF0FF366B462E
:10535000D0E900104FF001020979007835B3FCF76D
:10536000E5FE70BB9DF800006B4620F020008DF834
:10537000000020680122017960680078FCF763FF73
:10538000F8B90320FBF738FC02208DF8000094F8F0
:10539000220078B382202BE020686B460122017D39
:1053A00060680078FCF74FFF58B92EE0FCF7BEFEAE
:1053B00038B9A07AC0079DF8000003D040F0200063
:1053C00002E00CE020F020008DF8000020686B4621
:1053D0000122017960680078FCF735FF08B130469A
:1053E000F8BD0320FBF708FC94F8220000B18020F0
:1053F0008DF8000094F823000028CDD09DF800001F
:1054000040F030008DF80000C6E7A5749AE7000070
:105410001000002038B51C4C94F8241081421DD097
:10542000002500B394F82500D0B1002000F0D2F997
:105430000020FFF781FFE08C00F0C6F88DF80050E7
:1054400060686B46012200782321FCF7FCFE0120F6
:1054500084F8240000F0BEF9FFF712FE002038BDEA
:105460004FF0FF3038BD002000F0B4F9207C8DF8FB
:10547000000060686B46012200782321FCF7E3FE00
:1054800084F82450E8E700001000002038B5194CDB
:105490004FF0FF35A17A31B3FA2809D0B0F5FA7F81
:1054A00008D0B0F57A7F0FD0B0F5FA6F1BD10DE0C0
:1054B000002000E008208DF80000207A9DF8001000
:1054C000B0EBD10F04D005E01020F4E71820F2E78C
:1054D000002038BD20686B46012281796068007821
:1054E000FCF7B1FE08B1284638BD9DF80000C008A1
:1054F0002072EDE71000002038B5174C054694F8EF
:105500002300A84201D1002038BD0DB1302000E0B9
:1055100000208DF80000A07C28B19DF8000040F02C
:1055200002008DF8000094F8220028B19DF80000D8
:1055300040F080008DF8000020686B460122017D5C
:1055400060680078FCF77FFE10B14FF0FF3038BD87
:1055500084F82350D7E700001000002038B5194C1C
:105560004FF0FF35A17A31B3BC2801D3012010E000
:10557000622801D302200CE02A2801D3032008E08E
:10558000142801D3042004E00A2801D3052000E0F8
:1055900006208DF80000E07A9DF80010884201D1C5
:1055A000002038BD20686B46012281786068007851
:1055B000FCF749FE08B1284638BD9DF80000E072AE
:1055C000EEE7000010000020F8B51E4D04464FF035
:1055D000FF37A87A48B395F8240030BB287D4FF4F4
:1055E0007A7648B164B1282C03D8E0B2FFF77AFC90
:1055F00026E00020FFF776FC042C05D2042406E008
:105600000020FFF76FFCF9E7B44200D93446B6FB3F
:10561000F4F0401E8DF8000028686B4601224178A6
:1056200068680078FCF70FFE08B13846F8BD9DF8B1
:105630000000401CB6FBF0F0E8814008FFF78EFF49
:105640000020F8BD10000020F8B5054610F0700FDE
:105650004FF0000601D0012004E015B18DF8006084
:1056600002E040208DF80000244C6B4601222068A7
:10567000817C60680078FCF7E6FD4FF0FF3760BB87
:105680009DF8000020F0400020738DF8006068064F
:1056900002D404208DF80000A80605D49DF800006F
:1056A00040F002008DF80000E80605D49DF80000E7
:1056B00040F001008DF80000280705D49DF8000097
:1056C00040F038008DF8000020686B460122C17C54
:1056D00060680078FCF7B7FD10B1A6723846F8BDD7
:1056E00025B1082D02D00020FFF706FFA572267510
:1056F0003220FBF781FA0020F8BD000010000020E6
:10570000F8B516000D464FF0FF371FD0104CA17AA8
:10571000E1B1010A8DF80010C0B28DF80100411905
:1057200060684289914211D8216800786B46097EF1
:105730000222FCF788FD48B92068EAB23346417D71
:1057400060680078FCF77FFD002800D03846F8BD7F
:105750001000002010B588B0694604A8FFF740FD8E
:10576000032802D0012008B010BD07A8FFF75CFA9B
:105770000498FAF795FF07990C46FAF78DFDFAF7AA
:10578000AEFF04900598FAF78BFF2146FAF784FDE7
:10579000FAF7A5FF05900698FAF782FF2146FAF777
:1057A0007BFDFAF79CFF069004A8FEF771FB03A8A7
:1057B000FFF7FEF9BDF80C000099414300910199F3
:1057C000414301910299414368460291FEF7C2FAB2
:1057D0000020C8E7F8B5144C0146224694F824602E
:1057E000D2E9000200235D1E56B179B1022111E019
:1057F000C17B10786B460122FCF725FD68B90EE0ED
:10580000A67A56B111B1617C61B902E08DF8003021
:10581000EEE701218DF80010EAE72846F8BD9DF873
:10582000000060740020F8BD100000202DE9F04158
:1058300006460F46FBF71CF9041E0D4618BF012053
:10584000284320F00040C0F17F6000F1E040C00F2D
:105850000ED0301C18BF0120384320F00040C0F1AA
:105860007F6000F1E040C00F04BF0120FDF7CEF8DB
:1058700020462946BDE8F08101020203040506071F
:1058800008090A0B0C0D0E0F10100000000000009C
:1058900000000102030406070809000000000102DD
:1058A000030475191A0C6A231B1C1F207274433BD6
:1058B0004138393A6B6C376F06246D6E70006800A2
:1058C000000476005401F7FD000100008300000091
:1058D000000800000001001832000500000020410F
:1058E0000000D242295C0F3E9A99993E3333733FB0
:1058F000295C0F3E00007000000000240000000240
:105900000003000000650054FFEF0000FA80000B68
:1059100012820001030C30C30E8C8CE914D54002B6
:1059200013710F8E3883F8833000F883258EF88347
:105930003000F883FFFFFFFF0FFEA9D6240004000C
:105940001A8279A10000003CFFFF00000010000057
:1059500038836FA2003E03304000000002CAE30912
:105960003E80000020000000000000004000000019
:1059700060000000000C0000000C186E0000069291
:105980000A16C0DFFFFF0256FD8CD377FFE1C496F5
:10599000E0C5BEAA00000000FFFF0B2B0000165759
:1059A000000003594000000000001DFA00026C1DB9
:1059B000000000003FFFDFEB003EB3B6000D227891
:1059C00000002F3C00000000001942B5000039A281
:1059D0000000B365D90E9FC91DCF4C3430000000C4
:1059E000500000003BB67AE80064000000C80000E8
:1059F00000000000100000001000FA921000225E6B
:105A0000000D229F0001000000320000FF46000050
:105A100063D400001000000004D6000004CC000095
:105A200004CC0000000010720000004000000000E4
:105A30000000000000060002000500070000000052
:105A40000064000000000000000000050005006484
:105A500000200000000000000000000000004000E6
:105A60000000030000000032F8980000FF6500000D
:105A7000830F0000FF9BFC000000000000000000FE
:105A80000000000000000000000000000000000016
:105A90000000000000000000000000000000000006
:105AA0000000100040000000000000060000B26A84
:105AB000000200000001FB830068000000D9FC0028
:105AC0007CF1FF830000000000650000006403E833
:105AD00000640028000000250000000016A000005F
